{
  "abi": [
    {
      "inputs": [
        {
          "internalType": "address",
          "name": "token0_",
          "type": "address"
        },
        {
          "internalType": "address",
          "name": "token1_",
          "type": "address"
        }
      ],
      "stateMutability": "nonpayable",
      "type": "constructor"
    },
    {
      "inputs": [],
      "name": "InsufficientLiquidityBurned",
      "type": "error"
    },
    {
      "inputs": [],
      "name": "InsufficientLiquidityMinted",
      "type": "error"
    },
    {
      "inputs": [],
      "name": "TransferFailed",
      "type": "error"
    },
    {
      "anonymous": false,
      "inputs": [
        {
          "indexed": true,
          "internalType": "address",
          "name": "owner",
          "type": "address"
        },
        {
          "indexed": true,
          "internalType": "address",
          "name": "spender",
          "type": "address"
        },
        {
          "indexed": false,
          "internalType": "uint256",
          "name": "amount",
          "type": "uint256"
        }
      ],
      "name": "Approval",
      "type": "event"
    },
    {
      "anonymous": false,
      "inputs": [
        {
          "indexed": true,
          "internalType": "address",
          "name": "sender",
          "type": "address"
        },
        {
          "indexed": false,
          "internalType": "uint256",
          "name": "amount0",
          "type": "uint256"
        },
        {
          "indexed": false,
          "internalType": "uint256",
          "name": "amount1",
          "type": "uint256"
        }
      ],
      "name": "Burn",
      "type": "event"
    },
    {
      "anonymous": false,
      "inputs": [
        {
          "indexed": true,
          "internalType": "address",
          "name": "sender",
          "type": "address"
        },
        {
          "indexed": false,
          "internalType": "uint256",
          "name": "amount0",
          "type": "uint256"
        },
        {
          "indexed": false,
          "internalType": "uint256",
          "name": "amount1",
          "type": "uint256"
        }
      ],
      "name": "Mint",
      "type": "event"
    },
    {
      "anonymous": false,
      "inputs": [
        {
          "indexed": false,
          "internalType": "uint256",
          "name": "reserve0",
          "type": "uint256"
        },
        {
          "indexed": false,
          "internalType": "uint256",
          "name": "reserve1",
          "type": "uint256"
        }
      ],
      "name": "Sync",
      "type": "event"
    },
    {
      "anonymous": false,
      "inputs": [
        {
          "indexed": true,
          "internalType": "address",
          "name": "from",
          "type": "address"
        },
        {
          "indexed": true,
          "internalType": "address",
          "name": "to",
          "type": "address"
        },
        {
          "indexed": false,
          "internalType": "uint256",
          "name": "amount",
          "type": "uint256"
        }
      ],
      "name": "Transfer",
      "type": "event"
    },
    {
      "inputs": [],
      "name": "DOMAIN_SEPARATOR",
      "outputs": [
        {
          "internalType": "bytes32",
          "name": "",
          "type": "bytes32"
        }
      ],
      "stateMutability": "view",
      "type": "function"
    },
    {
      "inputs": [
        {
          "internalType": "address",
          "name": "",
          "type": "address"
        },
        {
          "internalType": "address",
          "name": "",
          "type": "address"
        }
      ],
      "name": "allowance",
      "outputs": [
        {
          "internalType": "uint256",
          "name": "",
          "type": "uint256"
        }
      ],
      "stateMutability": "view",
      "type": "function"
    },
    {
      "inputs": [
        {
          "internalType": "address",
          "name": "spender",
          "type": "address"
        },
        {
          "internalType": "uint256",
          "name": "amount",
          "type": "uint256"
        }
      ],
      "name": "approve",
      "outputs": [
        {
          "internalType": "bool",
          "name": "",
          "type": "bool"
        }
      ],
      "stateMutability": "nonpayable",
      "type": "function"
    },
    {
      "inputs": [
        {
          "internalType": "address",
          "name": "",
          "type": "address"
        }
      ],
      "name": "balanceOf",
      "outputs": [
        {
          "internalType": "uint256",
          "name": "",
          "type": "uint256"
        }
      ],
      "stateMutability": "view",
      "type": "function"
    },
    {
      "inputs": [],
      "name": "burn",
      "outputs": [],
      "stateMutability": "nonpayable",
      "type": "function"
    },
    {
      "inputs": [],
      "name": "decimals",
      "outputs": [
        {
          "internalType": "uint8",
          "name": "",
          "type": "uint8"
        }
      ],
      "stateMutability": "view",
      "type": "function"
    },
    {
      "inputs": [],
      "name": "getReserves",
      "outputs": [
        {
          "internalType": "uint112",
          "name": "",
          "type": "uint112"
        },
        {
          "internalType": "uint112",
          "name": "",
          "type": "uint112"
        },
        {
          "internalType": "uint32",
          "name": "",
          "type": "uint32"
        }
      ],
      "stateMutability": "view",
      "type": "function"
    },
    {
      "inputs": [],
      "name": "mint",
      "outputs": [],
      "stateMutability": "nonpayable",
      "type": "function"
    },
    {
      "inputs": [],
      "name": "name",
      "outputs": [
        {
          "internalType": "string",
          "name": "",
          "type": "string"
        }
      ],
      "stateMutability": "view",
      "type": "function"
    },
    {
      "inputs": [
        {
          "internalType": "address",
          "name": "",
          "type": "address"
        }
      ],
      "name": "nonces",
      "outputs": [
        {
          "internalType": "uint256",
          "name": "",
          "type": "uint256"
        }
      ],
      "stateMutability": "view",
      "type": "function"
    },
    {
      "inputs": [
        {
          "internalType": "address",
          "name": "owner",
          "type": "address"
        },
        {
          "internalType": "address",
          "name": "spender",
          "type": "address"
        },
        {
          "internalType": "uint256",
          "name": "value",
          "type": "uint256"
        },
        {
          "internalType": "uint256",
          "name": "deadline",
          "type": "uint256"
        },
        {
          "internalType": "uint8",
          "name": "v",
          "type": "uint8"
        },
        {
          "internalType": "bytes32",
          "name": "r",
          "type": "bytes32"
        },
        {
          "internalType": "bytes32",
          "name": "s",
          "type": "bytes32"
        }
      ],
      "name": "permit",
      "outputs": [],
      "stateMutability": "nonpayable",
      "type": "function"
    },
    {
      "inputs": [],
      "name": "symbol",
      "outputs": [
        {
          "internalType": "string",
          "name": "",
          "type": "string"
        }
      ],
      "stateMutability": "view",
      "type": "function"
    },
    {
      "inputs": [],
      "name": "token0",
      "outputs": [
        {
          "internalType": "address",
          "name": "",
          "type": "address"
        }
      ],
      "stateMutability": "view",
      "type": "function"
    },
    {
      "inputs": [],
      "name": "token1",
      "outputs": [
        {
          "internalType": "address",
          "name": "",
          "type": "address"
        }
      ],
      "stateMutability": "view",
      "type": "function"
    },
    {
      "inputs": [],
      "name": "totalSupply",
      "outputs": [
        {
          "internalType": "uint256",
          "name": "",
          "type": "uint256"
        }
      ],
      "stateMutability": "view",
      "type": "function"
    },
    {
      "inputs": [
        {
          "internalType": "address",
          "name": "to",
          "type": "address"
        },
        {
          "internalType": "uint256",
          "name": "amount",
          "type": "uint256"
        }
      ],
      "name": "transfer",
      "outputs": [
        {
          "internalType": "bool",
          "name": "",
          "type": "bool"
        }
      ],
      "stateMutability": "nonpayable",
      "type": "function"
    },
    {
      "inputs": [
        {
          "internalType": "address",
          "name": "from",
          "type": "address"
        },
        {
          "internalType": "address",
          "name": "to",
          "type": "address"
        },
        {
          "internalType": "uint256",
          "name": "amount",
          "type": "uint256"
        }
      ],
      "name": "transferFrom",
      "outputs": [
        {
          "internalType": "bool",
          "name": "",
          "type": "bool"
        }
      ],
      "stateMutability": "nonpayable",
      "type": "function"
    }
  ],
  "bytecode": {
    "object": "0x60e06040523480156200001157600080fd5b5060405162001795380380620017958339810160408190526200003491620001a5565b6040518060400160405280600d81526020016c2ab734b9bbb0b82b192830b4b960991b815250604051806040016040528060058152602001642aa724ab1960d91b815250601282600090816200008b919062000282565b5060016200009a838262000282565b5060ff81166080524660a052620000b0620000ec565b60c0525050600680546001600160a01b039485166001600160a01b031991821617909155600780549390941692169190911790915550620003cc565b60007f8b73c3c69bb8fe3d512ecc4cf759cc79239f7b179b0ffacaa9a75d522b39400f60006040516200012091906200034e565b6040805191829003822060208301939093528101919091527fc89efdaa54c0f20c7adf612882df0950f5a951637e0307cdcb4c672f298b8bc660608201524660808201523060a082015260c00160405160208183030381529060405280519060200120905090565b80516001600160a01b0381168114620001a057600080fd5b919050565b60008060408385031215620001b957600080fd5b620001c48362000188565b9150620001d46020840162000188565b90509250929050565b634e487b7160e01b600052604160045260246000fd5b600181811c908216806200020857607f821691505b6020821081036200022957634e487b7160e01b600052602260045260246000fd5b50919050565b601f8211156200027d57600081815260208120601f850160051c81016020861015620002585750805b601f850160051c820191505b81811015620002795782815560010162000264565b5050505b505050565b81516001600160401b038111156200029e576200029e620001dd565b620002b681620002af8454620001f3565b846200022f565b602080601f831160018114620002ee5760008415620002d55750858301515b600019600386901b1c1916600185901b17855562000279565b600085815260208120601f198616915b828110156200031f57888601518255948401946001909101908401620002fe565b50858210156200033e5787850151600019600388901b60f8161c191681555b5050505050600190811b01905550565b60008083546200035e81620001f3565b600182811680156200037957600181146200038f57620003c0565b60ff1984168752821515830287019450620003c0565b8760005260208060002060005b85811015620003b75781548a8201529084019082016200039c565b50505082870194505b50929695505050505050565b60805160a05160c051611399620003fc600039600061073a01526000610705015260006101e701526113996000f3fe608060405234801561001057600080fd5b506004361061010b5760003560e01c80633644e515116100a257806395d89b411161007157806395d89b411461026b578063a9059cbb14610273578063d21220a714610286578063d505accf14610299578063dd62ed3e146102ac57600080fd5b80633644e5151461021b57806344df8e701461022357806370a082311461022b5780637ecebe001461024b57600080fd5b80631249c58b116100de5780631249c58b146101ae57806318160ddd146101b857806323b872dd146101cf578063313ce567146101e257600080fd5b806306fdde03146101105780630902f1ac1461012e578063095ea7b3146101605780630dfe168114610183575b600080fd5b6101186102d7565b6040516101259190611033565b60405180910390f35b600854604080516001600160701b038084168252600160701b9093049092166020830152600090820152606001610125565b61017361016e36600461107d565b610365565b6040519015158152602001610125565b600654610196906001600160a01b031681565b6040516001600160a01b039091168152602001610125565b6101b66103d2565b005b6101c160025481565b604051908152602001610125565b6101736101dd3660046110a7565b610621565b6102097f000000000000000000000000000000000000000000000000000000000000000081565b60405160ff9091168152602001610125565b6101c1610701565b6101b661075c565b6101c16102393660046110e3565b60036020526000908152604090205481565b6101c16102593660046110e3565b60056020526000908152604090205481565b610118610a15565b61017361028136600461107d565b610a22565b600754610196906001600160a01b031681565b6101b66102a73660046110fe565b610a88565b6101c16102ba366004611171565b600460209081526000928352604080842090915290825290205481565b600080546102e4906111a4565b80601f0160208091040260200160405190810160405280929190818152602001828054610310906111a4565b801561035d5780601f106103325761010080835404028352916020019161035d565b820191906000526020600020905b81548152906001019060200180831161034057829003601f168201915b505050505081565b3360008181526004602090815260408083206001600160a01b038716808552925280832085905551919290917f8c5be1e5ebec7d5bd14f71427d1e84f3dd0314c0f7b2291e5b200ac8c7c3b925906103c09086815260200190565b60405180910390a35060015b92915050565b60085460009081906001600160701b0380821691600160701b9004166006546040516370a0823160e01b81523060048201529294509092506000916001600160a01b03909116906370a08231906024016020604051808303816000875af1158015610441573d6000803e3d6000fd5b505050506040513d601f19601f8201168201806040525081019061046591906111d8565b6007546040516370a0823160e01b81523060048201529192506000916001600160a01b03909116906370a08231906024016020604051808303816000875af11580156104b5573d6000803e3d6000fd5b505050506040513d601f19601f820116820180604052508101906104d991906111d8565b6008549091506000906104f5906001600160701b031684611207565b60085490915060009061051890600160701b90046001600160701b031684611207565b90506000600254600003610559576103e861053b610536848661121a565b610cd1565b6105459190611207565b905061055460006103e8610d41565b6105a8565b6105a5876001600160701b031660025485610574919061121a565b61057e9190611231565b876001600160701b031660025485610596919061121a565b6105a09190611231565b610d9b565b90505b600081116105c957604051633489be7560e21b815260040160405180910390fd5b6105d33382610d41565b6105dd8585610db3565b604080518481526020810184905233917f4c209b5fc8ad50758f13e2e1088ba56a560dff690a1c6fef26394f4c03821c4f910160405180910390a250505050505050565b6001600160a01b0383166000908152600460209081526040808320338452909152812054600019811461067d576106588382611207565b6001600160a01b03861660009081526004602090815260408083203384529091529020555b6001600160a01b038516600090815260036020526040812080548592906106a5908490611207565b90915550506001600160a01b0380851660008181526003602052604090819020805487019055519091871690600080516020611344833981519152906106ee9087815260200190565b60405180910390a3506001949350505050565b60007f0000000000000000000000000000000000000000000000000000000000000000461461073757610732610e24565b905090565b507f000000000000000000000000000000000000000000000000000000000000000090565b6006546040516370a0823160e01b81523060048201526000916001600160a01b0316906370a08231906024016020604051808303816000875af11580156107a7573d6000803e3d6000fd5b505050506040513d601f19601f820116820180604052508101906107cb91906111d8565b6007546040516370a0823160e01b81523060048201529192506000916001600160a01b03909116906370a08231906024016020604051808303816000875af115801561081b573d6000803e3d6000fd5b505050506040513d601f19601f8201168201806040525081019061083f91906111d8565b3360009081526003602052604081205460025492935091610860858461121a565b61086a9190611231565b90506000600254848461087d919061121a565b6108879190611231565b9050811580610894575080155b156108b25760405163749383ad60e01b815260040160405180910390fd5b6108bc3384610ebe565b6006546108d3906001600160a01b03163384610f20565b6007546108ea906001600160a01b03163383610f20565b6006546040516370a0823160e01b81523060048201526001600160a01b03909116906370a08231906024016020604051808303816000875af1158015610934573d6000803e3d6000fd5b505050506040513d601f19601f8201168201806040525081019061095891906111d8565b6007546040516370a0823160e01b81523060048201529196506001600160a01b0316906370a08231906024016020604051808303816000875af11580156109a3573d6000803e3d6000fd5b505050506040513d601f19601f820116820180604052508101906109c791906111d8565b93506109d38585610db3565b604080518381526020810183905233917f49995e5dd6158cf69ad3e9777c46755a1a826a446c6416992167462dad033b2a910160405180910390a25050505050565b600180546102e4906111a4565b33600090815260036020526040812080548391908390610a43908490611207565b90915550506001600160a01b03831660008181526003602052604090819020805485019055513390600080516020611344833981519152906103c09086815260200190565b42841015610add5760405162461bcd60e51b815260206004820152601760248201527f5045524d49545f444541444c494e455f4558504952454400000000000000000060448201526064015b60405180910390fd5b60006001610ae9610701565b6001600160a01b038a811660008181526005602090815260409182902080546001810190915582517f6e71edae12b1b97f4d1f60370fef10105fa2faae0126114a169c64845d6126c98184015280840194909452938d166060840152608083018c905260a083019390935260c08083018b90528151808403909101815260e08301909152805192019190912061190160f01b6101008301526101028201929092526101228101919091526101420160408051601f198184030181528282528051602091820120600084529083018083525260ff871690820152606081018590526080810184905260a0016020604051602081039080840390855afa158015610bf5573d6000803e3d6000fd5b5050604051601f1901519150506001600160a01b03811615801590610c2b5750876001600160a01b0316816001600160a01b0316145b610c685760405162461bcd60e51b815260206004820152600e60248201526d24a72b20a624a22fa9a4a3a722a960911b6044820152606401610ad4565b6001600160a01b0390811660009081526004602090815260408083208a8516808552908352928190208990555188815291928a16917f8c5be1e5ebec7d5bd14f71427d1e84f3dd0314c0f7b2291e5b200ac8c7c3b925910160405180910390a350505050505050565b60006003821115610d325750806000610ceb600283611231565b610cf6906001611253565b90505b81811015610d2c57905080600281610d118186611231565b610d1b9190611253565b610d259190611231565b9050610cf9565b50919050565b8115610d3c575060015b919050565b8060026000828254610d539190611253565b90915550506001600160a01b03821660008181526003602090815260408083208054860190555184815260008051602061134483398151915291015b60405180910390a35050565b6000818310610daa5781610dac565b825b9392505050565b600880546001600160701b03838116600160701b9081026001600160e01b0319909316868316179290921792839055604080518483168152929093041660208201527fcf2aa50876cdfbb541206f89af0ee78d44a2abf8d328e37fa4917f982149848a910160405180910390a15050565b60007f8b73c3c69bb8fe3d512ecc4cf759cc79239f7b179b0ffacaa9a75d522b39400f6000604051610e569190611266565b6040805191829003822060208301939093528101919091527fc89efdaa54c0f20c7adf612882df0950f5a951637e0307cdcb4c672f298b8bc660608201524660808201523060a082015260c00160405160208183030381529060405280519060200120905090565b6001600160a01b03821660009081526003602052604081208054839290610ee6908490611207565b90915550506002805482900390556040518181526000906001600160a01b0384169060008051602061134483398151915290602001610d8f565b6040516001600160a01b03838116602483015260448201839052600091829186169060640160408051601f198184030181529181526020820180516001600160e01b031663a9059cbb60e01b17905251610f7a9190611305565b6000604051808303816000865af19150503d8060008114610fb7576040519150601f19603f3d011682016040523d82523d6000602084013e610fbc565b606091505b5091509150811580610fea5750805115801590610fea575080806020019051810190610fe89190611321565b155b15611008576040516312171d8360e31b815260040160405180910390fd5b5050505050565b60005b8381101561102a578181015183820152602001611012565b50506000910152565b602081526000825180602084015261105281604085016020870161100f565b601f01601f19169190910160400192915050565b80356001600160a01b0381168114610d3c57600080fd5b6000806040838503121561109057600080fd5b61109983611066565b946020939093013593505050565b6000806000606084860312156110bc57600080fd5b6110c584611066565b92506110d360208501611066565b9150604084013590509250925092565b6000602082840312156110f557600080fd5b610dac82611066565b600080600080600080600060e0888a03121561111957600080fd5b61112288611066565b965061113060208901611066565b95506040880135945060608801359350608088013560ff8116811461115457600080fd5b9699959850939692959460a0840135945060c09093013592915050565b6000806040838503121561118457600080fd5b61118d83611066565b915061119b60208401611066565b90509250929050565b600181811c908216806111b857607f821691505b602082108103610d2c57634e487b7160e01b600052602260045260246000fd5b6000602082840312156111ea57600080fd5b5051919050565b634e487b7160e01b600052601160045260246000fd5b818103818111156103cc576103cc6111f1565b80820281158282048414176103cc576103cc6111f1565b60008261124e57634e487b7160e01b600052601260045260246000fd5b500490565b808201808211156103cc576103cc6111f1565b600080835481600182811c91508083168061128257607f831692505b602080841082036112a157634e487b7160e01b86526022600452602486fd5b8180156112b557600181146112ca576112f7565b60ff19861689528415158502890196506112f7565b60008a81526020902060005b868110156112ef5781548b8201529085019083016112d6565b505084890196505b509498975050505050505050565b6000825161131781846020870161100f565b9190910192915050565b60006020828403121561133357600080fd5b81518015158114610dac57600080fdfeddf252ad1be2c89b69c2b068fc378daa952ba7f163c4a11628f55a4df523b3efa26469706673582212209028acec059e0f5c3933b67aee12ceeb90889880b9376fb8b9f7cd4361a3240a64736f6c63430008150033",
    "linkReferences": {}
  },
  "methodIdentifiers": {
    "DOMAIN_SEPARATOR()": "3644e515",
    "allowance(address,address)": "dd62ed3e",
    "approve(address,uint256)": "095ea7b3",
    "balanceOf(address)": "70a08231",
    "burn()": "44df8e70",
    "decimals()": "313ce567",
    "getReserves()": "0902f1ac",
    "mint()": "1249c58b",
    "name()": "06fdde03",
    "nonces(address)": "7ecebe00",
    "permit(address,address,uint256,uint256,uint8,bytes32,bytes32)": "d505accf",
    "symbol()": "95d89b41",
    "token0()": "0dfe1681",
    "token1()": "d21220a7",
    "totalSupply()": "18160ddd",
    "transfer(address,uint256)": "a9059cbb",
    "transferFrom(address,address,uint256)": "23b872dd"
  },
  "id": 1
}